:020000040800F2
:1000000000040020A10D0008A10E0008A10E0008A8
:10001000A10E0008A10E0008A10E0008A10E000804
:10002000A10E0008A10E0008A10E0008C10E0008D4
:10003000A10E0008A10E0008A10E0008810F000803
:10004000A10E0008A10E0008A10E0008A10E0008D4
:10005000A10E0008A10E0008A10E0008A10E0008C4
:10006000A10E0008A10E0008A10E000881270008BB
:10007000B1270008E12700081128000841280008DE
:1000800071280008A1280008A10E0008A10E000890
:10009000A10E0008A10E0008A10E0008B152000830
:1000A000A10E0008A10E0008A10E0008A10E000874
:1000B000A10E0008A10E0008A10E0008D12E000814
:1000C000F12F0008A10E0008A10E0008A10E0008E3
:1000D000A10E0008A10E0008A10E0008E13B0008D7
:1000E000A10E0008A10E0008A10E0008A10E000834
:1000F000A10E0008A10E0008A10E0008D1280008DA
:10010000A10E0008A10E0008A10E0008A10E000813
:10011000A10E0008A10E0008A10E0008A10E000803
:1001200001290008312900086129000891290008E7
:10013000C1290008A10E0008A10E0008A10E0008A8
:10014000A10E0008A10E0008A10E0008D13500087C
:10015000F1290008212A0008512A0008A10E0008F0
:10016000A10E0008A10E0008A10E0008A10E0008B3
:10017000A10E0008A10E0008A10E0008A10E0008A3
:10018000A10E0008A10E0008A10E0008A10E000893
:10019000A10E0008A10E0008A10E0008A10E000883
:0C01A000A10E0008A10E0008A10E00082E
:1001B000F0B583B001F0DCFD00F052FF05F008F867
:1001C00005F03EF804F0DCFF04F02AF9204B012290
:1001D0001A214FF6112418465C8019715A711A8041
:1001E00004F05EFD01282ED0002604F0C9FD194C54
:1001F000194B00964FF40B6140221848184D01F03E
:100200006FF900961748184B4FF40B61402201F02C
:1002100067F9274606E0037F0E2B15D04FF47A705E
:1002200001F0A6F920680028F5D1D5F854321B68F2
:100230001B78042BEFD10D484FF42C71402203F0B2
:10024000BFFF3860EAE7FEE701F0CAF92660E5E79C
:10025000A024002038120020814F00084012002006
:10026000B8240020F01B0020014F0008305F000878
:1002700081F0004102E000BF83F0004330B54FEA57
:1002800041044FEA430594EA050F08BF90EA020FC4
:100290001FBF54EA000C55EA020C7FEA645C7FEA57
:1002A000655C00F0E2804FEA5454D4EB5555B8BF7A
:1002B0006D420CDD2C4480EA020281EA030382EAEB
:1002C000000083EA010180EA020281EA0303362D7D
:1002D00088BF30BD11F0004F4FEA01314FF4801C50
:1002E0004CEA113102D0404261EB410113F0004F62
:1002F0004FEA03334CEA133302D0524263EB430319
:1003000094EA050F00F0A780A4F10104D5F1200EB6
:100310000DDB02FA0EFC22FA05F2801841F1000111
:1003200003FA0EF2801843FA05F359410EE0A5F1E5
:1003300020050EF1200E012A03FA0EFC28BF4CF016
:10034000020C43FA05F3C01851EBE37101F00045CC
:1003500007D54FF0000EDCF1000C7EEB00006EEBD9
:100360000101B1F5801F1BD3B1F5001F0CD3490863
:100370005FEA30004FEA3C0C04F101044FEA4452BA
:1003800012F5800F80F09A80BCF1004F08BF5FEA41
:10039000500C50F1000041EB045141EA050130BD21
:1003A0005FEA4C0C404141EB010111F4801FA4F1C4
:1003B0000104E9D191F0000F04BF01460020B1FA19
:1003C00081F308BF2033A3F10B03B3F120020CDA51
:1003D0000C3208DD02F1140CC2F10C0201FA0CF02F
:1003E00021FA02F10CE002F11402D8BFC2F1200C94
:1003F00001FA02F120FA0CFCDCBF41EA0C0190404A
:10040000E41AA2BF01EB0451294330BD6FEA040492
:100410001F3C1CDA0C340EDC04F11404C4F120027D
:1004200020FA04F001FA02F340EA030021FA04F38F
:1004300045EA030130BDC4F10C04C4F1200220FAE6
:1004400002F001FA04F340EA0300294630BD21FA24
:1004500004F0294630BD94F0000F83F4801306BFEA
:1004600081F480110134013D4EE77FEA645C18BFDE
:100470007FEA655C29D094EA050F08BF90EA020F75
:1004800005D054EA000C04BF1946104630BD91EA6D
:10049000030F1EBF0021002030BD5FEA545C05D170
:1004A0004000494128BF41F0004130BD14F58004AF
:1004B0003CBF01F5801130BD01F0004545F0FE4123
:1004C00041F470014FF0000030BD7FEA645C1ABF58
:1004D000194610467FEA655C1CBF0B46024650EA8F
:1004E000013406BF52EA033591EA030F41F40021BB
:1004F00030BD00BF90F0000F04BF0021704730B541
:100500004FF4806404F132044FF000054FF0000115
:1005100050E700BF90F0000F04BF0021704730B5D6
:100520004FF4806404F1320410F0004548BF4042AB
:100530004FF000013EE700BF42004FEAE2014FEA00
:1005400031014FEA02701FBF12F07F4393F07F4FDB
:1005500081F06051704792F0000F14BF93F07F4F0D
:10056000704730B54FF4607401F0004521F0004150
:1005700020E700BF50EA010208BF704730B54FF0D6
:1005800000050AE050EA010208BF704730B511F0DB
:10059000004502D5404261EB41014FF4806404F113
:1005A00032045FEA915C3FF4DCAE4FF003025FEA95
:1005B000DC0C18BF03325FEADC0C18BF033202EB1D
:1005C000DC02C2F1200300FA03FC20FA02F001FA77
:1005D00003FE40EA0E0021FA02F11444C1E600BF16
:1005E00070B54FF0FF0C4CF4E06C1CEA11541DBFC9
:1005F0001CEA135594EA0C0F95EA0C0F00F0DEF894
:100600002C4481EA030621EA4C5123EA4C5350EA78
:10061000013518BF52EA033541F4801143F48013C9
:1006200038D0A0FB02CE4FF00005E1FB02E506F05A
:100630000042E0FB03E54FF00006E1FB03569CF0AF
:10064000000F18BF4EF0010EA4F1FF04B6F5007FB5
:1006500064F5407404D25FEA4E0E6D4146EB060627
:1006600042EAC62141EA55514FEAC52040EA5E50B0
:100670004FEACE2EB4F1FD0C88BFBCF5E06F1ED85A
:10068000BEF1004F08BF5FEA500E50F1000041EB91
:10069000045170BD06F0004646EA010140EA02003E
:1006A00081EA0301B4EB5C04C2BFD4EB0C0541EA60
:1006B000045170BD41F480114FF0000E013C00F375
:1006C000AB8014F1360FDEBF002001F0004170BD99
:1006D000C4F10004203C35DA0C341BDC04F11404B2
:1006E000C4F1200500FA05F320FA04F001FA05F23E
:1006F00040EA020001F0004221F0004110EBD3700B
:1007000021FA04F642EB06015EEA430E08BF20EA36
:10071000D37070BDC4F10C04C4F1200500FA04F3D9
:1007200020FA05F001FA04F240EA020001F000416B
:1007300010EBD37041F100015EEA430E08BF20EADE
:10074000D37070BDC4F1200500FA05F24EEA020E26
:1007500020FA04F301FA05F243EA020321FA04F055
:1007600001F0004121FA04F220EA020000EBD3700C
:100770005EEA430E08BF20EAD37070BD94F0000F0C
:100780000FD101F00046400041EB010111F4801F40
:1007900008BF013CF7D041EA060195F0000F18BFF1
:1007A000704703F00046520043EB030313F4801F2D
:1007B00008BF013DF7D043EA0603704794EA0C0FE7
:1007C0000CEA135518BF95EA0C0F0CD050EA4106FD
:1007D00018BF52EA4306D1D181EA030101F000417A
:1007E0004FF0000070BD50EA410606BF10461946A2
:1007F00052EA430619D094EA0C0F02D150EA0136AE
:1008000013D195EA0C0F05D152EA03361CBF1046EE
:1008100019460AD181EA030101F0004141F0FE418D
:1008200041F470014FF0000070BD41F0FE4141F411
:10083000780170BD70B54FF0FF0C4CF4E06C1CEA11
:1008400011541DBF1CEA135594EA0C0F95EA0C0FC6
:1008500000F0A7F8A4EB050481EA030E52EA033581
:100860004FEA013100F088804FEA03334FF08055A2
:1008700045EA131343EA12634FEA022245EA1115CF
:1008800045EA10654FEA00260EF000419D4208BF80
:10089000964244F1FD0404F5407402D25B084FEA2D
:1008A0003202B61A65EB03055B084FEA32024FF4D9
:1008B00080104FF4002CB6EB020E75EB030E22BF36
:1008C000B61A754640EA0C005B084FEA3202B6EBF6
:1008D000020E75EB030E22BFB61A754640EA5C00A5
:1008E0005B084FEA3202B6EB020E75EB030E22BF35
:1008F000B61A754640EA9C005B084FEA3202B6EB36
:10090000020E75EB030E22BFB61A754640EADC00F4
:1009100055EA060E18D04FEA051545EA16754FEA56
:1009200006164FEAC30343EA52734FEAC2025FEA74
:100930001C1CC0D111F4801F0BD141EA00014FF003
:1009400000004FF0004CB6E711F4801F04BF0143D4
:100950000020B4F1FD0C88BFBCF5E06F3FF6AFAEF0
:10096000B5EB030C04BFB6EB020C5FEA500C50F180
:10097000000041EB045170BD0EF0004E4EEA113103
:1009800014EB5C04C2BFD4EB0C0541EA045170BD0A
:1009900041F480114FF0000E013C90E645EA060E4E
:1009A0008DE60CEA135594EA0C0F08BF95EA0C0F7C
:1009B0003FF43BAF94EA0C0F0AD150EA01347FF4C4
:1009C00034AF95EA0C0F7FF425AF104619462CE79B
:1009D00095EA0C0F06D152EA03353FF4FDAE1046FE
:1009E000194622E750EA410618BF52EA43067FF44F
:1009F000C5AE50EA41047FF40DAF52EA43057FF4DF
:100A0000EBAE12E700000000000000000000000054
:100A10004FEA410212F5001215D211D56FF4787326
:100A2000B3EB625212D94FEAC12343F0004343EAC9
:100A3000505311F0004F23FA02F018BF40427047A4
:100A40004FF00000704750EA013005D111F000402E
:100A500008BF6FF0004070474FF00000704700BFC4
:100A60004FEA4102B2F1E04324BFB3F5001CDCF1D0
:100A7000FE5C0DD901F0004C4FEAC0024CEA507008
:100A8000B2F1004F40EB830008BF20F00100704737
:100A900011F0804F21D113F13872BCBF01F000403A
:100AA000704741F480114FEA5252C2F11802C2F16C
:100AB000200C10FA0CF320FA02F018BF40F00100ED
:100AC0004FEAC1234FEAD32303FA0CFC40EA0C009F
:100AD00023FA02F34FEA4303CCE77FEA625307D1DC
:100AE00050EA01331EBF4FF0FE4040F44000704713
:100AF00001F0004040F0FE4040F40000704700BFAD
:100B00004FF0FF3C06E000BF4FF0010C02E000BFD9
:100B10004FF0010C4DF804CD4FEA40024FEA41037B
:100B20007FEA226C18BF7FEA236C11D001B052EA31
:100B3000530C18BF90EA010F58BFB2EB030088BFF7
:100B4000C81738BF6FEAE17018BF40F00100704766
:100B50007FEA226C02D15FEA402C05D17FEA236C48
:100B6000E4D15FEA412CE1D05DF8040B704700BF8F
:100B7000844608466146FFE70FB5FFF7C9FF002826
:100B800048BF10F1000F0FBD4DF808EDFFF7F4FF5F
:100B90000CBF012000205DF808FB00BF4DF808EDF8
:100BA000FFF7EAFF34BF012000205DF808FB00BF1B
:100BB0004DF808EDFFF7E0FF94BF012000205DF83D
:100BC00008FB00BF4DF808EDFFF7D2FF94BF0120EE
:100BD00000205DF808FB00BF4DF808EDFFF7C8FFE7
:100BE00034BF012000205DF808FB00BF00000000BA
:100BF0004FEA4002B2F1FE4F0FD34FF09E03B3EB2A
:100C000012620DD94FEA002343F0004310F0004F69
:100C100023FA02F018BF404270474FF000007047BF
:100C200012F1610F01D1420205D110F0004008BF5E
:100C30006FF0004070474FF0000070470000000068
:100C4000844641EA000313F003036DD1403A41D3D7
:100C500051F8043B40F8043B51F8043B40F8043B96
:100C600051F8043B40F8043B51F8043B40F8043B86
:100C700051F8043B40F8043B51F8043B40F8043B76
:100C800051F8043B40F8043B51F8043B40F8043B66
:100C900051F8043B40F8043B51F8043B40F8043B56
:100CA00051F8043B40F8043B51F8043B40F8043B46
:100CB00051F8043B40F8043B51F8043B40F8043B36
:100CC00051F8043B40F8043B51F8043B40F8043B26
:100CD000403ABDD2303211D351F8043B40F8043BC6
:100CE00051F8043B40F8043B51F8043B40F8043B06
:100CF00051F8043B40F8043B103AEDD20C3205D3D6
:100D000051F8043B40F8043B043AF9D2043208D0CD
:100D1000D2071CBF11F8013B00F8013B01D30B883F
:100D200003806046704700BF082A13D38B078DD01D
:100D300010F003038AD0C3F10403D21ADB071CBFEF
:100D400011F8013B00F8013B80D331F8023B20F859
:100D5000023B7BE7043AD9D3013A11F8013B00F892
:100D6000013BF9D20B7803704B7843708B7883701A
:100D70006046704700000000000000000000000016
:100D8000704700BFAFF30080AFF30080AFF3008087
:100D9000FEE700BFAFF30080AFF30080AFF3008049
:100DA00072B6304880F30988022383F31488BFF3B6
:100DB0006F8F2D4B2D4A93420BD2D943114421F012
:100DC000030119444FF05532043B43F8042F8B4282
:100DD000FBD1274B83420CD226491A1D891A21F0D8
:100DE000030119444FF05532043B43F8042F8B4262
:100DF000FBD102F045FF2049204B99420BD2C8435A
:100E0000184420F003001E4C04300023E258CA505E
:100E100004338342FAD11B4B1B4A93420AD2D94373
:100E2000114421F0030119440022043B43F8042F2C
:100E30008B42FBD1154D164CFFF7A2FFAC4204D2FA
:100E400054F8043B9847AC42FAD3124D124CFFF7CA
:100E5000AFF9AC4204D254F8043B9847AC42FAD301
:100E6000FFF796FF0008002000000020000400208B
:100E70000004002003080020000800206008002073
:100E8000486200086008002030270020AC010008FC
:100E9000AC010008AC010008AC010008AFF3008011
:100EA000FEE700BFAFF30080AFF30080AFF3008038
:100EB00000F0A6FA00DF00BFAFF30080AFF30080C0
:100EC000EFF30983203383F30988002383F3118828
:100ED000704700BFAFF30080AFF30080AFF3008036
:100EE00008B5094B094A002199600720DA601021F2
:100EF00000F08EF80A20202100F08AF80B208021D3
:100F0000BDE8084000F084B800ED00E00003FA05F9
:100F1000202383F31188164B5B6813F4006319D008
:100F2000EFF30983A3F1200282F3098811494FF0FE
:100F300080708A6943F8040CD07F096892688968D8
:100F400058B1914294BF0022012262B10A4A43F88B
:100F5000082C704783F311887047914234BF0022F8
:100F60000122002AF2D1054A43F8082C704700BF3D
:100F700000ED00E078090020B10E0008B40E000872
:100F800008B5202383F3118800F0A2F8002383F32F
:100F90001188BDE80840FFF7BBBF00BFAFF300807A
:100FA0002DE9F04FC1F80CD0D0F80CD0BDE8F08F8F
:100FB000002383F311882846A04700F009FB7047FF
:100FC00020F0030202F1604202F56142F0B44309ED
:100FD00000F00304D2F80053E400FF269B00A64073
:100FE00003F1604325EA060503F561430127A140AB
:100FF00000F01F0007FA00F045EA0104C2F80043C0
:10100000C3F88001F0BC1860704700BFAFF30080E8
:1010100020F0030303F1604303F56D4300F0030088
:1010200010B4C0009A69FF24844022EA040281407F
:101030000A439A615DF8044B704700BFAFF300802C
:10104000024B034A9B699A61FEE700BF78090020C2
:10105000E0570008AFF30080AFF30080AFF30080EB
:1010600000B583B0FFF73CFF00F0E2F800F060F855
:1010700000F066FD00F0ACFD40210D4800F0D0F915
:101080000C4A012303779061002383F3118862B631
:101090001346094A9B6909489A6100230093C021BD
:1010A0000122074B00F01CFA03B05DF804FB00BFFF
:1010B0006008002078090020F0570008A8080020E8
:1010C00041100008AFF30080AFF30080AFF3008061
:1010D00070B5144B9B69DA7F0AB1013ADA771A6A64
:1010E000114901321A62CB680A6801338A42CB6027
:1010F00016D09668013E966096B90D461068D46881
:101100000860D6600023416083F311881069A0470E
:10111000202383F311882A6803499368002BEDD0BC
:1011200070BD00BF7809002068090020AFF300807F
:10113000044B4FF0FF3100225B601B609960DA6066
:10114000704700BF68090020AFF30080AFF3008054
:1011500070B40C4E3468A5680361A942C26004D91A
:101160002468491BA5688D42FAD363684360B44282
:10117000046060601860816002D0A368591AA160A1
:1011800070BC704768090020AFF30080AFF30080A7
:10119000074A0368934203D0996882680A449A60B8
:1011A00042681360036800215A60C160704700BF45
:1011B00068090020AFF30080AFF30080AFF3008038
:1011C00010B4202383F31188037F0D2B11D8DFE89F
:1011D00003F026101007100B101010101010100B39
:1011E000436A9A6801329A6090E80C001A600268BB
:1011F00053604FF0FF34002381680C4A4462037748
:10120000126893688B42FBD25168416002600023F0
:101210005060086083F311885DF8044B7047002329
:1012200083F311885DF8044B704700BF78090020F4
:10123000034B00225B601B605B611B619A6070471F
:1012400078090020AFF30080AFF30080AFF3008097
:1012500000228168084B10B4044602771B689A6824
:101260008A42FBD25A686260236020465C60146048
:101270005DF8044B704700BF78090020AFF3008091
:10128000084B30B41A6899691468087701250A2058
:10129000C877636015771C60104630BC9A61FFF711
:1012A0007FBE00BF78090020AFF30080AFF300805D
:1012B00030B54B1C87B0054611D00C4C0C4AA369C5
:1012C00001A8FFF745FF2846FFF7DAFF049B13B19B
:1012D00001A8FFF75DFFA369586A07B030BD034C52
:1012E000FFF7CEFFA369586A07B030BD7809002028
:1012F000C1110008AFF30080AFF30080AFF30080AE
:10130000DFF858C0F0B4DCF818708568BC6841623A
:10131000A54206460DD80022634602771B689A68EC
:101320009542FBD95A68726033605E601660F0BC0B
:10133000704700233B7763461B689A689442FBD949
:101340005A687A6001243B605F60176034773946E1
:101350003046CCF81860F0BCFFF722BE78090020B8
:101360000E4A1068F0B403689569136001270A26D5
:101370000021AC685A60077703469061EE772977C1
:1013800000E01B689A68A242FBD25A686A602B6030
:1013900029465D601560F0BCFFF702BE78090020A9
:1013A0000D4A106870B40368956913600126002126
:1013B000AC685A60067703469061297700E01B68A5
:1013C0009A68A242FBD85A686A602B6029465D6021
:1013D000156070BCFFF7E4BD78090020AFF3008012
:1013E000044B1A689B6992689B689A4200D87047C0
:1013F000FFF7D6BF78090020AFF30080AFF300807D
:10140000034B9B69DB7F0BB1FFF7CABFFFF7A8BF98
:1014100078090020AFF30080AFF30080AFF30080C5
:101420002DE9F003114C016465694561002200F16A
:101430002C064FF002094FF00A0800F128074FF080
:10144000010C0461816080F81C90606180F81F804D
:1014500080F81EC04277C2638263026282612861A3
:1014600087620663C662BDE8F00370477809002012
:101470002DE9F00F184D089FD5F814C0DFF85C80F7
:1014800024394618C6604FF0020B43504FF00A0A49
:101490007760002300F12C074FF0010900F12801CB
:1014A000C6F820800561826080F81CB080F81FA01B
:1014B00080F81E90C0F814C0026468614377C3636B
:1014C000836303628361CCF810000763C7628162A3
:1014D000BDE8F00F704700BF78090020B10F000889
:1014E0002DE9F84F9E460446202383F311881B4EB6
:1014F000DFF86CB07769243908440025E06004F116
:101500002C0344F801E004F1280C0A9941604FF0E3
:10151000020A4FF00A094FF00108C0F820B029462E
:10152000A26026616761226484F81CA084F81F9081
:1015300084F81E8065777461E563A5632562A56103
:1015400020463C612363E362C4F828C0FFF7D8FE5D
:101550002B4683F311882046BDE8F88F78090020D8
:10156000B10F0008AFF30080AFF30080AFF300804D
:1015700008B50146202383F311880620FFF798FE63
:10158000002383F3118808BDAFF30080AFF3008020
:1015900038B50E4B9C692546606255F8280FA84265
:1015A00006D00368A362FFF753FEA06AA842F8D1F1
:1015B000637F9B0704D1636922691A6122695361C1
:1015C0000E20BDE83840FFF75BBE00BF7809002061
:1015D000202383F31188FFF7DBBF00BFAFF3008048
:1015E0000146202383F31188827F013AD2B28277A9
:1015F000002383F3118812B9037F0E2B00D07047AC
:10160000437F03F00303012B02D0022B07D0704766
:10161000436902691A610269536100F029BB436999
:1016200002691A610269406C536100F091BB00BF0E
:1016300070B582B016461C460D4600F0D9FA98B136
:10164000202383F31188069B0093294632462346C4
:10165000FFF70EFF0123437700210446FFF750FEFA
:10166000002383F31188204602B070BDAFF30080E1
:10167000202383F31188044B1869837F0133837718
:10168000002383F31188704778090020AFF30080AE
:1016900010B5202383F31188074B04699C421DBFBA
:1016A000A37F0133A3770024002383F31188FFF77E
:1016B00097FF204610BD00BF78090020AFF30080DF
:1016C0000023406000608360704700BFAFF300807C
:1016D00070B52F4B054680689C69002853D0A268DE
:1016E00083689A4206D9037F8260042B32D0052B8F
:1016F0001CD09BB12B4603E09968A268914202D3AB
:101700001B689D42F8D15A68626023605C60146077
:1017100065620420BDE87040FFF7B2BD90E80C00A0
:101720001A6002685360FFF793FDE3E790E80A0050
:101730001960466A01684B60334602E0996891423D
:1017400002D31B689E42F9D15A6842600360586018
:101750001060CFE790E80A001960466A01684B60A4
:10176000334602E09968914202D31B689E42F9D148
:101770005A684260036058601060B068A26883686D
:101780009342B0D3B6E7E36BEB60AC60E56370BD4A
:1017900078090020AFF30080AFF30080AFF3008042
:1017A00008B5202383F31188FFF792FF002383F30A
:1017B000118808BDAFF30080AFF30080AFF3008065
:1017C000174A38B59069202383F31188C46B2568C4
:1017D000E368C363A5421CD0016C4BB11A689A42FE
:1017E00003D09268914238BF1146DB68002BF5D1D7
:1017F0002B68EA6B8160236028465C600021A5604D
:10180000E260EC63FFF77CFD002383F31188204640
:1018100038BD0023A360002383F31188204638BD20
:1018200078090020AFF30080AFF30080AFF30080B1
:1018300008B5826B037F1143082B81630BD0092B02
:1018400000D008BD436A19408B42FAD1FFF700FD72
:101850000023436208BD436A1942F7D108BD00BFA7
:1018600070B50468A04205460E4608D0201D0BC87E
:101870003343E360FFF7DCFF2468A542F6D170BD77
:1018800038B50B4B05469C69202383F31188A36B65
:10189000184006D108206562FFF7F2FCA36B05EA49
:1018A000030023EA0003A363002383F3118838BDF8
:1018B00078090020AFF30080AFF30080AFF3008021
:1018C00010B4024661B1094B9B69586244680D200F
:1018D00083E81400536023605DF8044BFFF7E8BC15
:1018E0004FF0FF305DF8044B704700BF78090020CF
:1018F00030B4029C046200250A44856002614060A5
:10190000006041618161C160C36130BC704700BF4C
:1019100038B504460068E36863610022A042A26013
:10192000A3610AD06FF00105036823605C60FFF7D4
:101930008FFC45622068A042F6D138BDAFF300802D
:1019400070B5202304460E4683F31188C3692BB17A
:10195000984703E0FFF7B4FF002815DBA568204691
:101960003146002DF6D0A2692169531C8B4205F146
:10197000FF35A361A56028BFE368107828BFA36185
:10198000002383F3118870BD2B4683F3118870BD4B
:101990002DE9F0471E460446D0F81C80202383F32F
:1019A00011884FF0000901EB020A4F1CB8F1000F3B
:1019B00005D02046C04702E0FFF782FFF0B9A568D6
:1019C00020463146002DF7D0A369013D5A1CA26183
:1019D000A5601B7807F8013C2369A2699A4224BFDD
:1019E000E368A361002383F31188574509F10109D6
:1019F00007D0202383F311880137D7E72B4683F3E1
:101A000011884846BDE8F087AFF30080AFF300804F
:101A100030B4029C04628D180561406000608260F1
:101A200041618161C160C36130BC7047AFF3008028
:101A300038B50269C368044600686361D21AA042DF
:101A4000A361A2600AD06FF00105036823605C60A7
:101A5000FFF7FEFB45622068A042F6D138BD00BF0B
:101A6000F8B504460F461646202383F3118803E099
:101A7000FFF726FF002819DBA56820463146002D18
:101A8000F6D06369013D5A1C6261A5601F7023692D
:101A900062699A4224BFE3686361E3690BB120463F
:101AA0009847002383F311880020F8BD2B4683F369
:101AB0001188F8BDAFF30080AFF30080AFF3008072
:101AC0002DE9F84F9A4604460E461746D0F81C906A
:101AD000202383F311884FF00008A56806F1010B5D
:101AE00020466B1EDDB16269A360531C63613378CD
:101AF0001370236962699A4224BFE3686361B9F194
:101B0000000F00D0C847002383F31188013F08F17C
:101B100001080DD0202383F311885E46DDE72046BF
:101B20005146FFF7CDFE0028D7D02B4683F311880E
:101B30004046BDE8F88F00BFAFF30080AFF30080F0
:101B40000548064A0649074B20F0070022F0070225
:101B500008601A60704700BF3727002000C00120CE
:101B60009809002094090020AFF30080AFF30080B3
:101B7000202383F31188094A09491368096807304B
:101B800020F00700C91A88429BBFC01810600020CF
:101B90001846002383F31188704700BF980900207E
:101BA00094090020AFF30080AFF30080AFF3008012
:101BB000024A034B10681B68C01A70479409002042
:101BC00098090020AFF30080AFF30080AFF30080EE
:101BD000044B054A1A6003F1100000229A60DA6093
:101BE000FFF76EBDA0090020711B0008AFF3008055
:101BF000F8B51E4E002818BF0646073106F1100042
:101C000021F0070506F10804FFF7CAFD03E05A6852
:101C1000954211D91C462368002BF8D1FFF7D0FD5F
:101C200033680BB305F108009847E8B106604560DA
:101C300000F108042046F8BD05F10801914208D9D9
:101C40001A6822601C4644F8086BFFF7B9FD20466D
:101C5000F8BD6FF00700401B5F1802441868585029
:101C60007A6027605D60EDE70024E3E7A0090020CB
:101C700070B50646A0F1080450F8080C00F10805FC
:101C80001030FFF78DFD2B46AB4204D0A34202D3A8
:101C90001B68AB42FAD11A681AB1944201D31346B9
:101CA000F2E756F8041C46F8082C1C6001F1080203
:101CB00056F8085CA018A84209D05A6802F1080139
:101CC00019448C4211D0BDE87040FFF779BD4068DF
:101CD000A25846F8082C0A18083246F8042C5A680C
:101CE00002F1080119448C42EDD156F8040C56F863
:101CF000081C1960024408325A60BDE87040FFF7C2
:101D00005FBD00BFAFF30080AFF30080AFF3008092
:101D100038B50E4C002818BF044604F110000D46DB
:101D2000FFF73EFDA3686BB10022144658681B689C
:101D300001340244002BF9D105B12A60FFF740FDC0
:101D4000204638BD1A461C46F6E700BFA009002011
:101D5000202383F3118803680B600023016083F361
:101D600011887047AFF30080AFF30080AFF30080BD
:101D700008B500F0ADFE074800F062FF00F030F853
:101D800000F0FEF900F00CFA00F0E2F8BDE80840BF
:101D900001F07EBF70590008AFF30080AFF3008000
:101DA0000C494A68104482424B680CD29A4203D9CB
:101DB0000023002BF7D17047984294BF00230123E2
:101DC000002BF0D1F7E79A42F6D80123002BEAD195
:101DD000F1E700BF001000E0AFF30080AFF3008038
:101DE00001F07EB9AFF30080AFF30080AFF3008065
:101DF00001220023027043600C30FFF761BC00BF7A
:101E000010B5046AD4F854321A681178042900D045
:101E100010BD217A0229FBD112891B7942FA03F302
:101E200013F00103F4D1206CE16BA26B411A8A1A02
:101E3000EED083F31188D4F8541213460868097958
:101E400004F1300200F00CFA202383F31188D4F857
:101E50005432BDE810401868197900F029BA00BF63
:101E600038B5046AD4F8542213681978042900D0CC
:101E700038BD217A0229FBD15279598903EB8203BB
:101E800041FA02F2DB68598A12F00103F0D1E569E8
:101E9000A0696269281A801A8142E9D883F31188FF
:101EA000D4F85422B0FBF1F301FB03F3106851792D
:101EB00004F10C0200F0C4F9202383F31188D4F854
:101EC000543218685979BDE8384000F0D9B900BFDC
:101ED0000C30FFF75DBD00BFAFF30080AFF30080B3
:101EE0000C304FF0FF33FFF753BD00BFAFF300805E
:101EF0003030FFF7E5BD00BFAFF30080AFF30080E7
:101F000030304FF0FF33FFF7DBBD00BFAFF3008091
:101F10000C30FFF715BD00BFAFF30080AFF30080BA
:101F20000C304FF0FF31FFF70BBD00BFAFF3008067
:101F30003030FFF795BD00BFAFF30080AFF30080F6
:101F400030304FF0FF32FFF78BBD00BFAFF30080A2
:101F5000704700BFAFF30080AFF30080AFF30080A5
:101F600010B503460E4A43F8042B82B00446012202
:101F7000009004F15401436002720A4B0C304FF49C
:101F80008072FFF7B5FC009404F1300004F5AA71EB
:101F90004FF48072044BFFF73BFD02B010BD00BF51
:101FA00010580008611E0008011E0008AFF30080F1
:101FB00030B40A68202383F311880B7902EB830382
:101FC000022498614D790935002342F825008D7966
:101FD00002EB85029061C0F85412047283F31188F9
:101FE00030BC7047AFF30080AFF30080AFF30080E8
:101FF00070B5D0F8543200F10C06044630461D6826
:10200000FFF786FC04F13000FFF712FD201D0121CF
:10201000FFF726FCD4F85432597905EB81032846A2
:10202000DB6832465B8A00F00BF9D4F8543228465C
:102030005979BDE8704000F023B900BFAFF30080CC
:1020400090F8443003F06003202B01D0002070474B
:1020500090F84530212B03D0222B09D0202BF5D12D
:10206000064B836307220023C26303640120704789
:1020700000238363C36303640120704700080020CA
:1020800000EB810370B59C6906460D46ACB1202378
:1020900083F311880821201DFFF7E2FB216CE26B1E
:1020A000A36B8A1AD11A13D106EB8503DA68536938
:1020B0005B681BB9002383F3118870BD128A013A53
:1020C0001340F7D183F31188002304F1300205E0B7
:1020D000002383F3118804F130020B463046294671
:1020E00000F0BEF8202383F311883046294600F023
:1020F000DFF8DFE7AFF30080AFF30080AFF30080DD
:1021000001F1090370B550F823400D460646A4B10D
:10211000202383F3118804216018FFF7A1FB06EB4D
:102120008503E069DA68A1696369528A411AC91AAC
:102130008A4203D9002383F3118870BD002383F3FF
:102140001188B1FBF2F302FB03F3304604F10C02F9
:10215000294600F075F8202383F31188304629467C
:1021600000F08EF8E6E700BFAFF30080AFF3008029
:10217000704700BFAFF30080AFF30080AFF3008083
:1021800001F066BDAFF30080AFF30080AFF30080D5
:10219000002301220270437083704360704700BFC8
:1021A00001F09EBAAFF30080AFF30080AFF3008080
:1021B0000023012202704360C36183620362C36231
:1021C0004362036303814381704700BFAFF3008024
:1021D00038B50446202383F3118800254160C5608B
:1021E00005614561856101F093FA02222B46227058
:1021F00083F3118838BD00BFAFF30080AFF30080D8
:1022000070B50646506914460D4618B100211022DB
:1022100003F01EFAA06918B10021102203F018FA89
:1022200006EB85033046DC602946BDE8704001F0CE
:102230004FBB00BFAFF30080AFF30080AFF300806F
:1022400070B400EB81040126E468A4690025E26013
:1022500063602670A56070BC01F022BCAFF3008003
:1022600070B400EB81040126E46864690025E26033
:1022700063602670A56070BC01F02ABCAFF30080DB
:1022800070B5448944FA01F313F0010601D001202E
:1022900070BD012303FA01F52C43448101F038FCA1
:1022A000304670BDAFF30080AFF30080AFF3008025
:1022B00070B5048944FA01F313F0010601D001203E
:1022C00070BD012303FA01F52C43048101F030FCB9
:1022D000304670BDAFF30080AFF30080AFF30080F5
:1022E000002202210170A0F84C2080F84E2080F8D6
:1022F0004F2002814281C26002614261826180F8A6
:10230000342001F075BA00BFAFF30080AFF3008056
:1023100070B50023044680F8343000F1440201F027
:10232000AFFB63689B686BB32046984750B3E06B84
:1023300094F8443094F84B1094F84A2042EA012271
:1023400082423CBFE263104613F0800FE36840F026
:10235000888000286CD15B69052284F8342001460E
:102360001870D86058609860204601F0B1FB2023B7
:1023700083F3118800212046FFF79AFF002383F39F
:10238000118870BD94F8443013F0600611D02046D7
:10239000002101F0F5FB2046002101F0E1FB63681C
:1023A0001B6813B1204605219847062384F8343072
:1023B00070BD94F8455003F07F0242EA0525B5F55B
:1023C000407F00F0E48016DDB5F5C06F00F0C780F7
:1023D0005EDDB5F5106F6ED040F60242954200F01A
:1023E000E980B5F5006FD2D104F14F0201202664D7
:1023F000A263E0639EE7022D00F09B8040F3908093
:10240000B5F5807F7CD0B5F5817FC0D194F84620AA
:10241000002ABCD194F8482012F00F0146D01206D1
:10242000204600F1EF8001F0BBFB94F844303DE022
:102430009B69A56B0022042184F834101146DD60ED
:1024400058601A709A60204601F02AFB202383F31B
:10245000118800212046FFF713FF002383F3118822
:1024600070BD58B15B69A56B0022012184F834105E
:102470001146DD6058601A709A6075E79B69032207
:1024800084F8342001461870D86058609860DAE704
:1024900040F20232954220D0B5F5A06F7FF477AFBD
:1024A000B4F84420B2F5A06F00F09A800020A06339
:1024B000E06320643EE794F8462084F84F20002A29
:1024C0007FD10322227062681268002AEED0204673
:1024D0000221904794F84430E8E794F84620002A17
:1024E0007FF455AF94F8482012F00F01DED01306A8
:1024F000204600F18C8001F033FB94F84430D5E79E
:1025000094F84620012A7FF442AFB4F84C20A66329
:1025100022F00202E66326643046A4F84C2009E764
:10252000002D44D104F14C0202202564A263E06333
:1025300000E794F8481011F0800F204601F00F01D9
:1025400042D101F07DFA012842D002287FF41FAF6A
:10255000314BA363E063266494F84430EAE6626892
:1025600094F8490094F84830556894F8471094F866
:10257000462043EA00232046A84700283FF407AF3F
:1025800009C82664A363E06394F84430D2E694F863
:102590004620012A7FF4FBAEB4F84C20A66342F03B
:1025A0000202E66326643046A4F84C20C2E6012D00
:1025B0007FF4EDAE194AA26302200022E063226498
:1025C000B8E6042222707EE701F04AFA0128BCD165
:1025D000134BA363E5632664284694F84430A9E6C8
:1025E00094F8463084F84E30204601F061F9636873
:1025F0001B6813B1204601219847032294F8443008
:10260000227053E701F0DCFA94F844304EE701F011
:10261000B7FA94F8443049E74058000830580008A9
:1026200050580008AFF30080AFF30080AFF3008094
:1026300038B590F83430022B044643D0052B3AD0FD
:10264000012B10D0002101F09BFA2046002101F05F
:1026500087FA63681B6813B1204605219847062353
:1026600084F8343038BD90F84B1090F84A30C26B83
:1026700043EA01239342C36805D9198AB2FBF1F5F5
:1026800001FB152202B39A690321002384F8341058
:10269000204619461370D3605360936001F000FA2E
:1026A000202383F3118800212046FFF7E9FD002352
:1026B00083F3118838BD036C03B19847002384F875
:1026C000343038BDC368DEE75B6911461A70DA60E2
:1026D0005A609A6001F0FCF9202383F311880021ED
:1026E0002046FFF7E5FD002383F31188022384F8D9
:1026F000343038BDAFF30080AFF30080AFF300801B
:1027000090F83430032B10B504462BD0042B11D095
:102710002046002101F034FA2046002101F020FA81
:1027200063681B6813B1204605219847062384F887
:10273000343010BDC3685A690521002380F8341075
:1027400019461370D3605360936001F0C1F92023E0
:1027500083F3118800212046FFF7AAFD002383F3AD
:10276000118810BDC3689B699B68002BD0D1036C96
:1027700003B19847002384F8343010BDAFF30080D4
:1027800008B5074B074A196801F03D0199601368C5
:102790000BB150689847BDE80840FEF7B9BB00BFD1
:1027A00000600240C0090020AFF30080AFF300805A
:1027B000084B094819688268890901F03D0110B584
:1027C0008C019C600AB1C0689047BDE81040FEF7DC
:1027D0009FBB00BF00600240C0090020AFF3008033
:1027E000084B094819680269090C01F03D0110B550
:1027F0000C049C600AB140699047BDE81040FEF7A8
:1028000087BB00BF00600240C0090020AFF300801A
:10281000084B094819688269890D01F03D0110B51E
:102820008C059C600AB1C0699047BDE81040FEF776
:102830006FBB00BF00600240C0090020AFF3008002
:1028400008B5074B07485968026A01F03D01D96095
:102850000AB1406A9047BDE80840FEF759BB00BF87
:1028600000600240C0090020AFF30080AFF3008099
:10287000084B09485968826A890901F03D0110B581
:102880008C01DC600AB1C06A9047BDE81040FEF7D9
:102890003FBB00BF00600240C0090020AFF30080D2
:1028A000084B09485968026B090C01F03D0110B54D
:1028B0000C04DC600AB1406B9047BDE81040FEF7A5
:1028C00027BB00BF00600240C0090020AFF30080BA
:1028D000084B09485968826B890D01F03D0110B51C
:1028E0008C05DC600AB1C06B9047BDE81040FEF774
:1028F0000FBB00BF00600240C0090020AFF30080A2
:1029000008B5074B07481968026C01F03D01996052
:102910000AB1406C9047BDE80840FEF7F9BA00BF25
:1029200000640240C0090020AFF30080AFF30080D4
:10293000084B09481968826C890901F03D0110B5FE
:102940008C019C600AB1C06C9047BDE81040FEF756
:10295000DFBA00BF00640240C0090020AFF300806E
:10296000084B09481968026D090C01F03D0110B5CA
:102970000C049C600AB1406D9047BDE81040FEF722
:10298000C7BA00BF00640240C0090020AFF3008056
:10299000084B09481968826D890D01F03D0110B599
:1029A0008C059C600AB1C06D9047BDE81040FEF7F1
:1029B000AFBA00BF00640240C0090020AFF300803E
:1029C00008B5074B07485968026E01F03D01D96010
:1029D0000AB1406E9047BDE80840FEF799BA00BFC3
:1029E00000640240C0090020AFF30080AFF3008014
:1029F000084B09485968826E890901F03D0110B5FC
:102A00008C01DC600AB1C06E9047BDE81040FEF753
:102A10007FBA00BF00640240C0090020AFF300800D
:102A2000084B09485968026F090C01F03D0110B5C7
:102A30000C04DC600AB1406F9047BDE81040FEF71F
:102A400067BA00BF00640240C0090020AFF30080F5
:102A5000084B09485968826F890D01F03D0110B596
:102A60008C05DC600AB1C06F9047BDE81040FEF7EE
:102A70004FBA00BF00640240C0090020AFF30080DD
:102A80000C4B30B400220C4D0C4C1A60114613460E
:102A9000E8580C33C02B0160A15002F10802F7D1B5
:102AA0000749084A4FF0FF338B6030BCCB6093601E
:102AB000D3607047400A002060580008C009002019
:102AC0000060024000640240AFF30080AFF300807A
:102AD000214B22491A694FF0FF3000222DE9F00105
:102AE00018611A615F6958615A611F6A1C4E1D4D59
:102AF0001D4C67F080571F6244F29F1C1A62072723
:102B0000D3F8248058625A62C1F804C08A600F600A
:102B1000F16841F08071F160296841F0010129609C
:102B2000196C41F080511964216841F48071216071
:102B3000196F01F44071B1F5007F03D04FF480317B
:102B400019671A67084B5A6822F400725A60BDE888
:102B5000F001FFF795BF00BF0038024010E000E031
:102B6000F0ED00E0001000E000700040AFF30080E6
:102B70002B492C4B4FF080504FF4404208641A60B0
:102B80000B6843F001030B600B68254A9807FBD5DF
:102B90001168002301F0F9011160114693608B6800
:102BA0001F4A13F00C0FFAD1136843F480331360FB
:102BB00011460B681A4A9B03FBD5536F43F0010380
:102BC000536711464B6F164A9807FBD5164B536057
:102BD0001368144943F0807313604B685A04FCD5A2
:102BE0000F490B680E4A9B01FBD5104B10499160B1
:102BF00040F205711960936843F002039360114637
:102C00008B68074A03F00C03082BF9D1536C43F48B
:102C100080435364536E43F480435366704700BF50
:102C2000003802400070004008544007003C024059
:102C300000940838AFF30080AFF30080AFF300805A
:102C40002DE9F00FDFF8AC91DFF8AC81D9F830B0A6
:102C5000DFF8A8C1604F614E614D624C6249634A22
:102C600040F2FF1A4BEA0A0BC9F830B0D9F850B05D
:102C70004BEA0A0AC9F850A04368C8F804308368D0
:102C8000C8F80830C368C8F80C300369C8F81430B5
:102C90004369C8F820308369C8F824300368C8F84D
:102CA0000030036ACCF80430436ACCF80830836AF9
:102CB000CCF80C30C36ACCF81430036BCCF820305D
:102CC000436BCCF82430C369CCF80030C36B7B6015
:102CD000036CBB60436CFB60836C7B61C36C3B62C9
:102CE000036D7B62836B3B60876D7760C76DB760F8
:102CF000076EF760476E7761876E3762C76E7762DF
:102D0000476D3760466F6E60866FAE60C66FEE606F
:102D1000D0F880606E61D0F884602E62D0F8886050
:102D20006E62066F2E60D0F890506560D0F89450B7
:102D3000A560D0F89850E560D0F89C506561D0F857
:102D4000A0502562D0F8A4506562D0F88C50256060
:102D5000D0F8AC404C60D0F8B0408C60D0F8B440B3
:102D6000CC60D0F8B8404C61D0F8BC400C62D0F8D0
:102D7000C0404C62D0F8A8400C60D0F8C810516038
:102D8000D0F8CC109160D0F8D010D160D0F8D41029
:102D90005161D0F8D8101162D0F8DC105162D0F82F
:102DA000C4101160124BD0F8E4205A60D0F8E8202B
:102DB0009A60D0F8EC20DA60D0F8F0205A61D0F8B0
:102DC000F4201A62D0F8F8205A62D0F8E0201A6095
:102DD000BDE8F00F704700BF00080240000C024041
:102DE000001002400014024000180240001C024083
:102DF000002002400038024000000240000402406F
:102E00002DE9F00F002302F00307C2F38006C2F39E
:102E1000C105C2F341144FF00F09C2F3C3124FF0C2
:102E2000010A38E0D0F820B02BEA0C0C4CEA080874
:102E3000C0F82080D0F804C00AFA03F82CEA080C85
:102E40004CEA060CC0F804C04FF0030B4FEA430CE9
:102E5000D0F808800BFA0CFC6FEA0C0C0CEA08089E
:102E600048EA0508C0F80880D0F80C800CEA080889
:102E700048EA0408C0F80C80D0F800800CEA080C7E
:102E80004CEA070CC0F800C049081AD07600AD0023
:102E9000A400BF00013303F0070C4FEA8C0C11F0C3
:102EA000010F02FA0CF809FA0CFCEDD0072BB9D986
:102EB000D0F824B02BEA0C0C4CEA0808C0F82480A7
:102EC000B8E7BDE8F00F7047AFF30080AFF30080C4
:102ED000414A424938B5546B238BA58AADB245EAC5
:102EE000034323F07F438B4260D021D807398B42C4
:102EF00050D001318B4213D1A388D26A23F40073DE
:102F00001B0412681B0CA380136843F001031360B9
:102F1000A3889BB243F48053A3805368012B54D9F8
:102F200015F00A0F18BF238BBDE83840FDF7F0BF3E
:102F30002B498B4221D002318B42F1D1D36A1B68DD
:102F40005B68002B37D1A38823F400731B041B0C90
:102F5000A38023889BB243F400732380202383F350
:102F60001188D0691C4A20B100234362D361FEF767
:102F70006FF9002383F31188D2E7A388126B23F43F
:102F800000731B0412681B0CA380136843F0010339
:102F90001360C5E7138C1A0A0BD003F0010343F04A
:102FA000F00302F006021A432282B9E7138CC3F33E
:102FB00047032382B4E72388118C9BB243F4A063B8
:102FC00041F0010111842380AEE7238823F480635C
:102FD0001B041B0C2380A3E7440A00200800030005
:102FE00082000700AFF30080AFF30080AFF30080F2
:102FF0003748F8B5446B066BA18A326889B201F490
:103000005F4383F47F4383F0FF03A382136823F0BD
:103010001F0313601368DF07FCD4377AC56A73682F
:103020002A683D26BE401E60136823F01F0313600C
:10303000136813F00103FBD12E7A6A683D25B54071
:103040001560CD0548BF01238A05836044BF43F066
:10305000020383604F050DD5A28822F4007212048A
:10306000120CA280228892B243F0040342F4007250
:10307000228083600E0544BF43F0080383604D0443
:1030800044BF43F020038360CC0444BF43F01003EB
:1030900083600A0404D433B9BDE8F840FDF738BFB3
:1030A00043F040038360202383F31188C069084BF9
:1030B00030B16FF0010242620022DA61FEF7C8F817
:1030C000002383F31188BDE8F840FDF721BF00BF5E
:1030D000440A0020AFF30080AFF30080AFF300801C
:1030E00010B5074C2046FEF783FE064B064A626386
:1030F000002103F14802E161E362226310BD00BFD9
:10310000440A00206058000800540040AFF30080DB
:10311000F8B5056D05EB41130646D3F8084BC3F827
:10312000084B22070F4603D5D5F814381B0714D4D3
:10313000E20703D5D5F81438DB0700D4F8BD06EB59
:1031400087037189DB680122BA4021EA0202728199
:10315000DB68304639469847F8BD00EB8103DB68F1
:103160005B689847E4E700BFAFF30080AFF30080EF
:10317000F8B5056D05EB41130646D3F80849C3F8C9
:103180000849E3070F4603D5D5F81038DA0720D4ED
:1031900023061DD50122D5F83438BA401A4217D07B
:1031A000202383F311880121F36DD5F83428706E44
:1031B00001FA07F73B4322EA0707F365C5F83478BD
:1031C00018B1FEF745F800237366002383F31188D6
:1031D000F8BD00EB8103B0F808E0DB6801228A400B
:1031E0002EEA020202819B689847D1E7AFF3008084
:1031F0002DE9F04FAE4BAF499A69D0F850909161EC
:1032000085B08346202383F3118800264F469BF820
:103210000030012B05D0DBF85C306BB97B69DA0636
:103220000AD4BA69A24D42F01002AB69BA61022019
:10323000CBF86430FEF724F8002383F311884FF0B5
:10324000000A7B69DB0622D5DBF85000056A05F42D
:10325000F013B3F5802F2FD0B3F5402FF1D105F047
:103260000F030BEB8303C5F30A15DA68EB1C9B080D
:10327000146AE6D000F580500222016812B144F8C9
:10328000041B013A013BF8D17B69DB06DCD4012247
:10329000DBF85C3002FA0AF21A42019278D10AF1A4
:1032A000010ADBF854309B685FFA8AFA9A45C8D95C
:1032B000202383F31188AAE705F00F080BEB880899
:1032C000C5F30A15D8F80C3099690B78EBB90A1DCB
:1032D00092E80C400332D21AEB1C9B084FEA920290
:1032E00009D000F58050F446046812B14CF8044B44
:1032F000013A013BF8D10EEB0504CC60D8F80C3054
:103300009B699A6815449D609BE7CC6845B36269E8
:1033100000F58050AE46BEF1030F07D923699A42EB
:1033200004D3E2686261BEF1030FF7D8D0F800C0A1
:10333000002302F101092CFA03F1C4F81490117072
:1033400022696169914224BFE2686261BEF1010EA7
:1033500006D0182B02D008336269EAE76269DAE71F
:10336000202383F31188A36820682B44A042A36024
:1033700008D0036823605C60FDF76AFF466220683E
:10338000A042F6D1FEF72CF8002383F31188B5E7AD
:10339000202383F31188DBF85C30B968019D21F0AC
:1033A000010123EA0502B9600023CBF85C2083F316
:1033B00011880BEB8A0CDCF80C406069836841686B
:1033C0008B4280F0BB80DBF85020248A4FEA4A15FC
:1033D00000951544C91AD5F81839A14234BF0D46D5
:1033E00025469BB2B5EB830F0AF1010A2ED803974D
:1033F00067460378002B3CD1EB1CC4689B0802EBAA
:103400000A3E18BF224605D052F8041BCEF8001021
:10341000013BF9D12C44C460FC6860698368416851
:103420002B449942836040F28680DBF85020DDF81F
:1034300000E0248A9644CD1ADEF81839A54228BF48
:1034400025469BB2B5EB830FD3D9039F00222023DF
:1034500083F31188BB6843F00103BB602AB9D7F836
:10346000343801990B43C7F83438002383F31188AB
:1034700017E702EB0A3EC4681DB3D4F8108002952A
:103480002A46910835D1A36900218C46581CA061B9
:103490001B78804503FA01F34CEA030C9CBFE368F8
:1034A000A361013A08D0182906D00831A369EDE7D5
:1034B0007809002030590008CEF800C0002AE0D179
:1034C000029D202383F31188A36820682B44A04227
:1034D000A36008D0036823605C60FDF7B9FE466214
:1034E0002068A042F6D1FDF77BFF002383F311880B
:1034F00092E7A569B8EB050348BF03339B109942D7
:1035000038BF0B464FEA8309C9EB02023BB129469B
:1035100051F8040BCEF80000013BF9D14D4445456C
:10352000A56104D3E368A361002AAAD1C8E7002AF1
:10353000C6D02B46A8E7039F012288E70AF1010ABB
:10354000FAE700BFAFF30080AFF30080AFF3008075
:10355000D1F808C000212DE9F0010D464FF0804858
:103560004FF0FF3714E0C2F800590319C3F810599F
:10357000C3F80879D2F8006B002E17DBC2F8005BA5
:10358000044401316145C4F8105BC4F8087B15D8C8
:103590004C010219D2F80039002BE4DAC2F8008994
:1035A0001646D6F808399B07FBD5DEE7C2F8008B34
:1035B0001A46D2F8083BDB06FBD5E1E74FF00113D2
:1035C000C0F81C38BDE8F001704700BFAFF30080C1
:1035D00070B53F4E356D6B69AC691C40E0046C61A1
:1035E0003FD4A10448BFD5F80838220704D5736832
:1035F000DB680BB136489847E30610D5202383F3E8
:103600001188AB69706E324E23F01003AB6118B1B4
:10361000FDF71EFE00237366002383F31188600309
:10362000D5F8185807D5E9073AD4AA073ED46B074E
:1036300042D42E0746D4240307D5E80323D4A90394
:1036400027D46A0318D42B0303D4BDE87040FDF7D8
:103650005FBC1F480321FFF75BFDBDE87040FDF72D
:1036600057BC3046FEF73CFE73681B68002BB8D091
:10367000304600219847B4E715480221FFF748FD7E
:103680002B03E2D5E5E700211148FFF741FDA9032F
:10369000D7D50F480121FFF73BFD6A03D3D5EBE7F0
:1036A0000B480021FFF764FDAA07C0D50848012197
:1036B000FFF75EFD6B07BCD505480221FFF758FDFB
:1036C0002E07B8D502480321FFF752FDB3E700BF2C
:1036D000800A0020AFF30080AFF30080AFF30080DA
:1036E00010B5064C2046FEF763FD4FF0A043044A98
:1036F0002365002362652366636610BD800A00208F
:1037000020590008AFF30080AFF30080AFF30080D2
:1037100070B50378066D012B82B0054601D002B06A
:1037200070BD2E4B984249D02B6E0022EA65002BCB
:1037300038D02B4BF3602B49C6F800184FF45023B8
:103740000022C6F8002EB3632C6D2020FEF728FB64
:10375000012323612369DB07FCD40C20FEF720FB47
:103760002369002BFCDA0024B460286D696DFFF733
:10377000EFFE6B68C6F81048DB68C6F81448C6F858
:103780001C485BB143F20803B3614FF0FF33736130
:10379000B36843F00103B36002B070BD4FF440530F
:1037A000B361F2E7009505F168004FF498710222C9
:1037B0000D4BFDF75DFE68662866BAE70B4B5A6B4A
:1037C00042F080025A635969002241F08001596138
:1037D00043205A61E021FDF7F3FBA5E7800A0020B2
:1037E0004014004003002002F1310008003802407C
:1037F000F8B5046D202307462361226912F02005E5
:10380000FBD10C20FEF7CCFA7B6D9E682A46FF2187
:103810004FF0006504EB42130132B242C3F8005985
:10382000C3F8005BC3F80819C3F8081BF2D94FF0BE
:10383000FF324FF00113C4F81828C4F81C387B6D10
:103840001A68BA651B6863623A6D102313611369C5
:1038500013F01005FBD10C20FEF7A2FAD4F80038C3
:10386000104A114823F4FE63C4F80038A36943F4F6
:10387000402343F010030921A361C4F81018C4F8D1
:103880001418F860C4F8105BC4F8002BC4F8105981
:10389000C4F80029BB6D03F1100243F48013BA652C
:1038A000A362F8BD4080001040590008AFF30080CB
:1038B000036D90F84E10D3F8002822F4FE6242EA1D
:1038C0000112C3F800287047AFF30080AFF3008007
:1038D0002DE9F0410FFA81F800EB88060D46F368F8
:1038E000046D1A6802F00302022A5ED0032A5ED039
:1038F0004C4F4D49012A18BF0F46690104EB010ED8
:10390000DA684FF0000CCEF810CB002A75D0B3F86F
:1039100012E005F15802520147EA0E0E44F802E0A7
:103920004FF0010CD4F81C2805F1100E0CFA0EFE15
:103930004EEA0202C4F81C2821449A684FF0000E97
:10394000C1F810E9002A34D09A8B198A012A4FEA6B
:10395000910388BF534305F13F01826D04EB810160
:1039600003EB020E42EA0343C0F858E04B60026DDD
:10397000AB0143F02003136113699906FCD40C20BA
:10398000FEF70EFAF3681A8A05F1480342EA8552F7
:103990005B011743E7500122D4F81C3802FA05F501
:1039A0001D43C4F81C58BDE8F081204FA5E7204F07
:1039B000A3E705F13F0304EB83031E4A5A60026D3F
:1039C000AB0143F02003136113699B06FCD404EBA5
:1039D00048180C20FEF7E4F9D8F8003923F4004326
:1039E000C8F80039D4F81C38012202FA05F523EA98
:1039F0000503C4F81C38BDE8F08104EB481205F15A
:103A0000100ED2F800CB2CF4004CC2F800CBD4F846
:103A10001C284FF0010C0CFA0EFE22EA0E02C4F82C
:103A20001C2889E700800410008000100080081026
:103A300000800C1000040002AFF30080AFF30080A0
:103A40005831036D49015B5813F4004004D013F45E
:103A5000001F0CBF02200120704700BFAFF30080A1
:103A60004831036D49015B5813F4004004D013F44E
:103A7000001F0CBF02200120704700BFAFF3008081
:103A800000EB8101CB681B6A19685B6853601160A9
:103A9000704700BFAFF30080AFF30080AFF300804A
:103AA00000EB8103006DDB689A695B8A5268013A1A
:103AB0001A44B2FBF3F200EB411143F0C04343EA76
:103AC000C243C1F8103B7047AFF30080AFF30080F2
:103AD00000EB810310B4DA6853695B6873B1128A32
:103AE000046D581E104404EB4111B0FBF2F243EA9E
:103AF000C243C1F810395DF8044B7047036D5DF89F
:103B0000044B03EB41114FF40023C1F81039704707
:103B1000036D03EB4111D1F8003B43F08063C1F822
:103B2000003B7047AFF30080AFF30080AFF300803D
:103B3000036D03EB411210B4D2F8004944F0044481
:103B4000C2F80049D3F834285DF8044B012000FA8C
:103B500001F11143C3F83418704700BFAFF3008080
:103B6000036D03EB4111D1F8003B43F40013C1F89E
:103B7000003B7047AFF30080AFF30080AFF30080ED
:103B8000036D03EB4111D1F8003943F40013C1F880
:103B900000397047AFF30080AFF30080AFF30080CF
:103BA000036D03EB4111D1F8003B23F40013C1F87E
:103BB000003B7047AFF30080AFF30080AFF30080AD
:103BC000036D03EB4111D1F8003923F40013C1F860
:103BD00000397047AFF30080AFF30080AFF300808F
:103BE00070B51A4EB5682C88AB88A4B240F20F139A
:103BF0002340E3B173681B694FF6FF622A80B3B1BB
:103C000014F0080F14BF10210021E00748BF41F055
:103C10000401A20748BF41F00801600748BF41F016
:103C20002001E20548BF41F040010848984763067B
:103C300007D573685B684FF6BF722A800BB10348E3
:103C40009847BDE87040FDF763B900BF300C002015
:103C500010B5074C2046FEF79BFA064B064AA260B9
:103C6000062103F11802E1602361626110BD00BF0B
:103C7000300C00206C58000800480040AFF3008072
:103C8000FEF776BFAFF30080AFF30080AFF30080A4
:103C9000704700BFAFF30080AFF30080AFF3008048
:103CA000F0B4002B08BF0B4600F10B0700F10A052A
:103CB000B1FBF2F602FB161101F13004392CC8BF3A
:103CC00001F13704E4B2B3FBF2F331462E4605F8B6
:103CD0000149002BECD1BA1B3346024401E013F832
:103CE000014F00F8014B9042F9D1F0BC704700BF82
:103CF0002DE9F04F07468BB00C4616462178631C21
:103D000051B125290BD03A681C4692683846904735
:103D10002178631C0029F4D10BB0BDE8F08F6278E4
:103D20002D2A03BFA278A31C4FF0010C4FF0000C0A
:103D30002E2A00F04881302A00F045814FF02008FB
:103D40001C46002506E03378043605EB850522780D
:103D500003EB4505A2F13003DBB2092B04F10104AA
:103D6000F3D92A2AEFD02E2A4FF0000145D002F0D5
:103D7000DF034C2B4ED0A2F14403342B00F2198107
:103D8000DFE813F00D0117011701170117010D01ED
:103D9000170117011701170117010B01170117016F
:103DA0001701170117014E00170117017A001701BB
:103DB0001701170117011701170117011701170143
:103DC0001701FD000D011701B600170117010D01C4
:103DD000170117011701170117010B01170117012F
:103DE00017017C0017014E00170117017A00337884
:103DF000043601EB810103EB410114F8012BA2F120
:103E00003003DBB2092BF4D92A2AF0D002F0DF0309
:103E10004C2BB0D12378002BADD001341A46AAE741
:103E20000A220DF110093168484604360023CDF806
:103E300000C0FFF735FFDDF800C0CA46C9EB000B34
:103E4000CBEB050525EAE575BCF1000F3FD16D42CE
:103E50005DB19AF800102D2900F0BA803B68384611
:103E60009B68414698470135F8D13B6851465A4610
:103E70001B683846984741E71022D2E7D6F800A0E1
:103E80006B4BBAF1000F08BF9A4647F6FF729AF8DB
:103E900000300436002908BF1146002B00F0BD8019
:103EA0005144D34602E08B4500F09F809BF80130DF
:103EB0000BF1010B002BF6D1CAEB0B0BCBEB05057D
:103EC0004FF0200825EAE575BCF1000FBFD03B6834
:103ED00051465A461B6838469847002D3FF40EAFAE
:103EE0003B6838469B6841469847013DF8D105E755
:103EF000073626F00706D6E90001CDF800C0FCF72A
:103F0000AFFD00218346FCF749FE0836DDF800C00E
:103F1000002878D10DF11009CA465846CDF800C0E6
:103F2000FCF766FE01900A22504601990023FFF734
:103F3000B7FE82462E230AF8013B5846FCF7FCFAEE
:103F4000CDE902010198FCF7E5FA02460B46DDE9EE
:103F50000201FCF791F934A3D3E90023FCF740FBFD
:103F6000FCF756FD0A22014642F210735046FFF755
:103F700097FECA46C9EB000BDDF800C060E70DF103
:103F80002809336809F8183D0DF1110B0436C9EB07
:103F90000B0BCA464FF0200852E7082241E7316870
:103FA000002906F1040625DB0DF1100948460A2216
:103FB0003CE70DF128090DF1110B09F8182DC9EB9B
:103FC0000B0BCA463CE75A784FF030080133B7E68E
:103FD000B8F1300F7FF442AF3B6838469B68984792
:103FE0000AF1010A0BF1FF3B38E7CAEB010B4FF076
:103FF000200825E72D2349428DF810300DF11100DE
:104000000DF11009D3E72D230BF1004B8DF8103083
:104010000DF1110A0DF110097FE79B464FF02008C2
:104020000EE700BFAFF3008000000000006AF84018
:10403000705A0008AFF30080AFF30080AFF3008048
:104040000EB400B582B003AA52F8041B0192FFF728
:104050004FFE02B05DF804EB03B07047AFF3008091
:10406000002903DD0449054AFFF7EABF044B05496F
:10407000DA68FFF7E5BF00BF805A00088C5A0008D5
:1040800068090020945A0008AFF30080AFF3008065
:1040900010B5002982B0044606DD1949194A02B05C
:1040A000BDE81040FFF7CCBF1749184AFFF7C8FF1B
:1040B00020461749174AFFF7C3FF20461649174AFB
:1040C000FFF7BEFF20461649164AFFF7B9FF204604
:1040D0001549164AFFF7B4FF20461549154AFFF760
:1040E000AFFF20461449154AFFF7AAFF144B00936F
:1040F00020461449144A154BFFF7A2FF02B010BD29
:10410000805A00089C5A0008A45A0008B85A0008AF
:10411000C85A0008DC5A0008245B0008385B000815
:10412000445B0008585B0008645B0008785B00088B
:10413000905B0008A45B0008D85B0008EC5B0008FB
:104140003C5C0008145C00082C5C0008385C00082B
:1041500038B504460D4690B1286020460B4901F061
:1041600017FB04442046094901F0EAFA60B1421CF9
:1041700000232A600370237823B1204638BD0C68E1
:10418000002CEAD1002038BD2860F4E7485C000824
:10419000014B1B60704700BF4C0C0020AFF3008048
:1041A00010B52023044683F3118804480021FDF74D
:1041B00057FB2046BDE81040FDF7EAB94C0C002043
:1041C00000B583B0034B00900020FDF731FA03B037
:1041D0005DF804FB81420008AFF30080AFF300807C
:1041E000F0B5013A83B00E468F1804460D46236899
:1041F00020465B680DF107010122984738B39DF80E
:104200000710042926D008290ED00D2929D01F29EE
:10421000EDD9BD42EBD2236820469B6898479DF8B4
:1042200007302B700135E2E7B5422046DFD0236826
:104230009B689847236820469B68202198472368FD
:104240009DF807109B682046013D9847CFE7012065
:1042500003B0F0BD20460749FFF7F2FE012003B08E
:10426000F0BD20460449FFF7EBFE0020287003B0A4
:10427000F0BD00BF4C5C0008E85B0008AFF30080B5
:104280002DE9F041574B06689B69574AD0F80480E6
:1042900056499A6196B03046FFF7D2FE30465449EF
:1042A000FFF7CEFE304606A94022FFF799FF0446ED
:1042B00000282FD1694606A8FFF74AFF694607463E
:1042C00000206D46FFF744FF50B1042C1BD045F889
:1042D000040F694600200134FFF73AFF0028F4D1AB
:1042E00016AA02EB840343F8540C002FD6D03846AC
:1042F000404901F0FDF9C0B984B130463E493D4A1C
:10430000FFF79EFECAE730463C49FFF799FE0023BF
:104310000593C3E730463A49FFF792FE0020FFF7C6
:104320003FFF002016B0BDE8F0813846354901F066
:10433000DFF930B93046BCB12F49324AFFF780FE71
:10434000ACE7314D286820B931E055F8080F002856
:104350002DD0394601F0CCF90028F6D16B68214602
:10436000304601AA984799E7274D2849FFF768FE8C
:104370002A682C463AB130462549FFF761FE54F8C9
:10438000082F002AF7D1B8F1000F0BD0D8F8002081
:1043900042B1444630461E49FFF752FE54F8082FFA
:1043A000002AF7D130461B49FFF74AFE76E7B8F1FD
:1043B000000F0DD0D8F8000050B1454602E055F886
:1043C000080F28B1394601F093F90028F7D1C5E765
:1043D00030463A461049FFF733FE30460F49FFF7A3
:1043E0002FFE5BE778090020505C0008585C00084D
:1043F000705C00089C5C0008805A0008845C00081F
:10440000785C0008A45C000808080020AC5C000888
:10441000C45C0008E85B0008C85C0008CC5C0008CD
:10442000F0B5394D39483A4C3A4E87B080210022D8
:10443000FEF7E6FC284610210022FEF7E1FC2846A4
:1044400020210022FEF7DCFC204601210022FEF79D
:10445000D7FC204602210022FEF7D2FC4FF4805503
:1044600020464FF480610022FEF7CAFC2046294610
:1044700025831922FEF7C4FC20464FF4005140F278
:104480009A22FEF7BDFC20464FF4804140F2822282
:10449000FEF7B6FC204640F29A224FF40041FEF7A8
:1044A000AFFC4FF48040012100F09AFF4FF4827777
:1044B00000234FF0100C4FF0070E4FF400723046FF
:1044C00001A9ADF810C0ADF80C30ADF80A30ADF868
:1044D0000830ADF80430ADF81230ADF814E0ADF8A6
:1044E0000E20ADF8067000F0E3FF3046012101F028
:1044F0000FF84FF400612583204661831922FEF7EF
:104500007FFC07B0F0BD00BF000802400000024081
:104510000004024000380040AFF30080AFF3008099
:10452000014608B5064801F00BF80548012101F0E5
:104530000FF80028F9D0024800F0FAFFC0B208BD19
:1045400000380040AFF30080AFF30080AFF300808D
:1045500038B5431E0C469BB290B10133CD180948C3
:10456000002100F0EDFF0748012100F0F1FF0028D5
:10457000F9D0044800F0DCFF04F8010BAC42EED1A6
:1045800038BD00BF00380040AFF30080AFF30080BB
:1045900038B5431E0C469BB288B10133CD1808488C
:1045A00014F8011B00F0CCFF0548012100F0D0FFFA
:1045B0000028F9D0024800F0BBFFAC42EFD138BD73
:1045C00000380040AFF30080AFF30080AFF300800D
:1045D00038B5044C4FF480556583FFF7A1FF258360
:1045E00038BD00BF00040240AFF30080AFF300808D
:1045F00070B5094C06464FF48055000A658340F0BB
:104600001000FFF78DFFF0B2FFF78AFF0020FFF7E1
:1046100087FF258370BD00BF00040240AFF3008018
:104620002DE9F0410A4C06464FF48055000A658397
:1046300040F020008846FFF773FF0746F0B2FFF70F
:104640006FFF4046FFF76CFF25833846BDE8F081D9
:1046500000040240AFF30080AFF30080AFF30080AE
:104660002DE9F0410C4D07464FF48056000A6E8349
:1046700040F020000C46FFF753FF8046F8B2FFF7EA
:104680004FFFE0B2FFF74CFF200AFFF749FF2E83F0
:104690004046BDE8F08100BF00040240AFF3008057
:1046A0002DE9F041084C4FF48055074665833020D2
:1046B0008846FFF735FF414606463846FFF748FF74
:1046C00025833046BDE8F08100040240AFF300804E
:1046D0002DE9F041084C4FF48055074665833A2098
:1046E0008846FFF71DFF414606463846FFF750FF54
:1046F00025833046BDE8F08100040240AFF300801E
:10470000F8B5074C4FF48055074665835820FFF7EE
:1047100007FF06463846FFF703FF25833046F8BDFE
:1047200000040240AFF30080AFF30080AFF30080DD
:1047300038B5064C4FF48055658340F08000FFF794
:10474000EFFE0020FFF7ECFE258338BD0004024099
:1047500070B5074C4FF480550E4640F0C00065839D
:10476000FFF7DEFE3046FFF7DBFE258370BD00BF9E
:1047700000040240AFF30080AFF30080AFF300808D
:1047800080B582B000AF7860094B9B69094A9A6195
:10479000074B9A69084B1A600120FDF771F8074B27
:1047A0001B68002B03D0054B1B689847F4E7F3E721
:1047B00078090020D0570008540C0020500C00202D
:1047C00080B400AF034B1B781846BD465DF8047BF0
:1047D000704700BF20080020AFF30080AFF30080D7
:1047E00080B582B000AF0346FB71FB790B3BDBB2B7
:1047F0001A4692001344DBB20B33DBB22E2019466B
:10480000FFF7A6FF0837BD4680BD00BFAFF30080AD
:1048100080B582B000AF0346FB80FB884FF47D700B
:104820001946FFF71DFF0837BD4680BDAFF3008076
:1048300080B582B000AF0346FB80FB8840F2F230C7
:104840001946FFF70DFF0837BD4680BDAFF3008066
:1048500080B582B000AF78600B46FB70FB781846DD
:104860007968FFF735FF0837BD4680BDAFF300809C
:1048700080B582B000AF78600B46FB70FB781846BD
:104880007968FFF70DFF0837BD4680BDAFF30080A4
:1048900080B582B000AF40F6C413FB8000237B716B
:1048A00000BF244B1B695B0903F00103002BF8D008
:1048B00022200221FFF74CFF1E4820210022FEF794
:1048C0009FFA0DE04420FFF783FE1A4B1B691B097A
:1048D00003F00103002B00D008E0142000F0A0FC3E
:1048E000FB88013BFB80FB88002BEBD1FB88002B76
:1048F00005D101237B714820FFF76AFE0CE00023FD
:104900007B7100BF0B4B1B695B0903F00103002B9C
:10491000F8D08120FFF7F4FE22202C21FFF718FFAA
:10492000044820210022FEF76BFA7B7918460837ED
:10493000BD4680BD00080240AFF30080AFF30080A9
:1049400080B586B000AF7860802000F0A9FD00201F
:10495000072100F005FE80233B6100233B750823FF
:104960007B750123BB7507F11003184600F048FD65
:1049700017233B7302237B730023BB730123FB7359
:1049800007F10C03184600F0A3FC044B7A681A6088
:104990008820FFF7B5FE1837BD4680BD500C0020BB
:1049A00080B582B000AF8820FFF7AAFE80233B606D
:1049B00000233B7108237B710023BB713B461846E3
:1049C00000F01EFD0837BD4680BD00BFAFF300807C
:1049D00080B582B000AF802000F062FD80233B6094
:1049E00000233B7108237B710123BB713B461846B2
:1049F00000F006FD0837BD4680BD00BFAFF3008064
:104A000080B582B000AFFFF7CBFF4720FFF7E0FD96
:104A10003E20FFF78DFE0346FB714220FFF7D8FDD5
:104A20003E20FFF785FE0346FA799A4202D04720DE
:104A3000FFF7CEFDFFF7CCFF0837BD4680BD00BFB6
:104A400080B582B000AFFFF7ABFF4720FFF7C0FD96
:104A50003E20FFF76DFE0346FB714520FFF7B8FDD2
:104A60003E20FFF765FE0346FA799A4202D04720BE
:104A7000FFF7AEFDFFF7ACFF0837BD4680BD00BFB6
:104A800080B500AF034B1B6818460121FCF7D0FE30
:104A900080BD00BF540C0020AFF30080AFF3008056
:104AA00080B400AF00BF054B1B6903F00103002B6E
:104AB000F9D1BD465DF8047B704700BF0004024099
:104AC00080B582B000AF6423FB71114B4FF480526C
:104AD0005A8305E00A2000F0A3FBFB79013BFB7140
:104AE000FB79002B06D00A4B1B699B0B03F00103DB
:104AF000002BEFD0064B4FF480521A83FB79002B2A
:104B000014BF00230123DBB218460837BD4680BD21
:104B100000040240AFF30080AFF30080AFF30080E9
:104B200080B584B002AFFFF73BFF244B4FF4006227
:104B30005A83224B4FF480521A831420FCF718FD3D
:104B40001E484FF4804140F28222FEF759F91B4B78
:104B50004FF400621A83FFF7B3FF0346012B01D124
:104B6000012326E0164B7B600BE07B681B781A461E
:104B70007B685B7810461946FFF752FD7B6802336D
:104B80007B607B681B78002BEFD1002300930D48DE
:104B90004FF4966142220C4BFCF7A2FC4620FFF733
:104BA00027FD0346FB70FB78852B0CBF00230123F8
:104BB000DBB218460837BD4680BD00BF0004024086
:104BC00024080020580C002081470008AFF3008023
:104BD000884228BF08467047AFF30080AFF30080DB
:104BE00038B5284C2848FCF7DBFDFFF7D9FE01213A
:104BF0002046FFF73DFE217801F07F010529217055
:104C000022D0224DA1F10B03DBB2601CAB71FFF788
:104C10002FFE61782289C1F3401004F10A03287342
:104C20006A80AB60AA68AB795BB2D018D35C6B7357
:104C300090F90130002BE3781ADB2B70FFF7C8FEE8
:104C4000BDE83840FCF7BCBD601CFFF711FE617881
:104C500094F905300D4AC1F34011002B1173EDDAC0
:104C60000B4BE1781A789142E8D101225A70E5E7BE
:104C70002A789A42E1D001F0DF01412904BF0122E4
:104C8000AA73DAE718110020A811002008110020EB
:104C9000B8110020AFF30080AFF30080AFF30080C5
:104CA00070B50646FFF73CFF01281FD01048114C95
:104CB000FCF706FD1048FCF703FD1049104B266079
:104CC000012200258D609A705D603079FFF788FDC4
:104CD0002368188880B2FFF79BFD2368588880B24C
:104CE000FFF7A6FD0748FFF72BFE284670BD00BF63
:104CF000A8110020C01100209811002008110020E8
:104D0000B8110020E14B0008AFF30080AFF3008042
:104D1000014B987B704700BF08110020AFF3008063
:104D20002DE9F041114C80460D4611481646FCF71E
:104D300037FDA768A0792946FFF74AFF39460246A2
:104D40004046FBF77DFF36B1677BFFF739FDFFB2C9
:104D5000381A47B237800023A373FCF731FDA079DE
:104D60002946BDE8F041FFF733BF00BF081100201E
:104D7000A8110020AFF30080AFF30080AFF30080F4
:104D800008B50648FCF70CFD054B01229A70FFF7A9
:104D900037FEBDE80840FCF713BD00BFA811002096
:104DA000B8110020AFF30080AFF30080AFF30080B4
:104DB00008B50648FCF7F4FC054B00229A70FFF793
:104DC0003FFEBDE80840FCF7FBBC00BFA811002077
:104DD000B8110020AFF30080AFF30080AFF3008084
:104DE0002DE9F843394F044639480E461546FCF77D
:104DF000D7FCBB78002B51D067212846FFF7E8FE8F
:104E0000DFF8D880334D81463348FCF7C9FCFFF703
:104E100047FEFFF7C5FDD8F8003059793A78EA70B7
:104E200088220029AA705A88AA800CBF41206120DC
:104E300009F10B0168702970EC801B882B81B9F196
:104E4000000F0AD009F1FF31C9B201310023EA187D
:104E5000F45C947201338B42F9D109F10A01C9B2B1
:104E60001C48FFF7F5FCFCF7ABFCFFF7B1FDFFF7C3
:104E70000FFD0346A8B1D8F800305B790124BB7858
:104E80004BB11CB93B780133DBB23B70FCF798FCAB
:104E90002046BDE8F883FFF78BFFF2E7FFF770FFCE
:104EA000AAE7D8F80020527902F0FF04002AE6D0E1
:104EB00006207B70FCF75CFB7C78BB78D4F10104A6
:104EC00038BF0024002BDCD1E5E700BFB81100207B
:104ED00098110020C4110020A8110020C01100204A
:104EE0000EB400B582B003AA52F8041B0192FEF77B
:104EF000FFFE02B05DF804EB03B07047AFF3008033
:104F000030B51A4B1A4A9B6985B09A610125002475
:104F100019E00120014600F0ABF94FF47A70FCF77C
:104F200027FB01A94FF6FF7001228DF80440FFF71F
:104F300057FF0021B0B90120014600F099F94FF464
:104F40007A70FCF715FB01A94FF6FF7001228DF86E
:104F50000450FFF745FF00210028DAD0012000F0BF
:104F600087F9DAE7012000F083F9E8E77809002003
:104F7000005D0008AFF30080AFF30080AFF3008066
:104F80000C4B0D4A9B6910B50C4C9A6102E0012054
:104F9000FCF7EEFAFFF7BCFE0028F8D00748FF2127
:104FA0000022FFF7BDFE0028F1D00020217800F09C
:104FB0005FF9ECE778090020085D0008F01A00208E
:104FC000F0B5002987B0064605DD164907B0BDE8F3
:104FD000F040FFF785BF1449144FFFF781FF3046BB
:104FE0001349FFF77DFFFCF743FB0446A268E36823
:104FF000256A0092A27F0F49013A0192227F57F859
:1050000022200292A2690392304622460495FFF7BD
:1050100067FF2046FCF73CFB04460028E6D107B0BA
:10502000F0BD00BF105D0008245D0008405F00086F
:10503000645D0008A45D0008AFF30080AFF300805A
:1050400010B5002984B0044604DD0F49FFF748FF7E
:1050500004B010BD684600F07BF92046009A0B4969
:10506000FFF73EFF2046019A0949FFF739FF204626
:10507000029A0849FFF734FF20460749039AFFF7D1
:105080002FFF04B010BD00BFCC5D0008DC5D000840
:10509000F05D0008045E0008185E0008AFF30080B1
:1050A00030B5002983B0044604DD0E49FFF718FF30
:1050B00003B030BD01A90020FCF72AFE0546FCF72D
:1050C00077FD094902462046FFF70AFF20462A4697
:1050D0000649FFF705FF20460549019AFFF700FF43
:1050E00003B030BD2C5E00083C5E00085C5E00082A
:1050F000745E0008AFF30080AFF30080AFF3008070
:10510000022906D0032906D00748012918BF00202C
:10511000704706487047032A03D8054800EBC200D1
:1051200070470020704700BF30610008B05F000882
:1051300000610008AFF30080AFF30080AFF30080A0
:10514000022910B5044611D1202383F311880121CF
:10515000074AFDF755F820460221064AFDF750F8A8
:105160000548FCF745FF002383F3118810BD00BFFD
:10517000805F0008C05F0008B8240020AFF3008003
:1051800038B50F4D0F4CFFF703F82846FCF7E8FE43
:105190000D492846FCF70CFF236D9A6B22F4002280
:1051A0009A6342F21070FCF7E3F920460749FDF7D5
:1051B0000FF8236D9A6B42F400229A6338BD00BF4A
:1051C000B8240020800A002020610008F05F000859
:1051D00030B589B004A800F0BBF88020012100F0B0
:1051E000FFF80D4D049B0D4CA5FB0325ED0C002392
:1051F0004FF6FF72204601A9013D0292ADF80C3036
:10520000ADF80630ADF8045000F0C2F92046012197
:1052100000F00EFA09B030BD83DE1B43001C0040D5
:1052200005494B6A184483B24A6A9342FCD3024947
:105230004A6A9342FCD87047001C0040AFF30080DC
:1052400010B5094C042120461922FDF7D9FD192279
:1052500020460821FDF7D4FD4FF400224FF48023AF
:10526000A261A36110BD00BF00000240AFF3008047
:1052700068B101280AD111F0010114BF00224FF4D6
:105280008022084B42EA810199617047704711F012
:10529000010114BF00224FF40022024B42EAC10177
:1052A0009961704700000240AFF30080AFF30080C7
:1052B00008B5802000F0E4F820B1802000F0F0F87C
:1052C000FFF7DEFBBDE80840FBF722BEAFF300802E
:1052D000C378F0B463B90378194A5909203103F04F
:1052E0001F03012000FA03F342F82130F0BC70479D
:1052F000144B4778DA68857803781149D243C2F3B2
:105300000222C2F104040F26E4B207FA04F446FABA
:1053100002F2E4B22A40224303F1604303F5614301
:105320001201D2B283F800230378012003F01F0298
:105330005B0900FA02F241F82320F0BC704700BF7D
:1053400000E100E000ED00E0AFF30080AFF300808B
:105350001F4A936803F00C03042B10B41BD0082BD6
:105360001CD01C4B03601A491B4A8C68C4F30314FD
:10537000145DE34043608C68C4F38224145D23FA17
:1053800004F4846089685DF8044BC1F34231525CD7
:10539000D340C3607047114B0360E4E75468516821
:1053A000526863024CBF0D4B0A4B01F03F01C2F340
:1053B0008812B3FBF1F303FB02F3054A5268C2F310
:1053C000014201325200B3FBF2F30360CBE700BFAE
:1053D000003802400024F4004C08002000127A003B
:1053E000044B1A6C19B922EA000018647047104384
:1053F0001864704700380240AFF30080AFF30080BC
:10540000837970B42BB31D4B01681E68027945790E
:10541000CC4326401E605E6802F1804202F59E3257
:1054200034405C6014682143116002689868D1437D
:1054300008409860D868102D01EA0001D96014D0A6
:1054400005F1804303F59E3370BC19680A431A6066
:1054500070470379016803F1804303F59E3370BC04
:105460001A6822EA01021A6070479968114399602C
:10547000D9680A43DA6070BC704700BF003C014045
:10548000054B1A685B69034004D010420CBF002032
:105490000120704718467047003C0140AFF3008080
:1054A000014B5861704700BF003C0140AFF30080E2
:1054B0002DE9F007B1F802A0B1F80090B1F804802E
:1054C0000F894E898D89CC89B1F806C00A8A038874
:1054D0004AEA090141EA080141EA0C013943314332
:1054E0002943214303F441530B439BB20380838B35
:1054F00023F400631B041B0C8383BDE8F0070282C6
:10550000704700BFAFF30080AFF30080AFF30080BF
:10551000038829B923F040031B041B0C0380704748
:105520009BB243F040030380704700BFAFF300809D
:10553000808980B2704700BFAFF30080AFF3008076
:1055400081817047AFF30080AFF30080AFF300803C
:10555000038919420CBF002001207047AFF300807F
:1055600001F0FC0303F1804303F59C3301F00301D8
:1055700010B489009C680F228A4024EA02029A60D3
:105580009A685DF8044B884002439A60704700BFF8
:10559000234A0388904270B49BB212D002F5806215
:1055A00090420ED0B0F1804F0BD0A2F580329042E5
:1055B00007D002F58062904203D002F580629042EB
:1055C00003D14A8823F070031343164A90421ED039
:1055D00002F5806290421AD00E894D680C8823F43F
:1055E000407302F56C429BB2334390420380C56224
:1055F000048506D00C4B984203D00123838270BCF3
:1056000070478B7A03860123838270BC70470380C6
:105610000B884A68C26203850123838270BC70478D
:10562000000001400010004000040140AFF3008082
:10563000038829B923F001031B041B0C0380704766
:105640009BB243F001030380704700BFAFF30080BB
:10565000F0B4840743D0541E002A3ED0CDB2034696
:1056600003E0621E002C38D0144603F8015B9A0751
:10567000F7D1032C2AD9CDB245EA05250F2C45EAEE
:10568000054515D9A4F110073F0903F1100606EBF3
:1056900007161A46156055609560D5601032B24203
:1056A000F8D104F00F040137032C03EB07130DD9D5
:1056B0001E462246043A032A46F8045BFAD8221F03
:1056C00022F003020432134404F003042CB1C9B2E3
:1056D0001C4403F8011BA342FBD1F0BC70471446E5
:1056E0000346C6E7000000000000000000000000C4
:1056F0000F4B30B41C68054602E0D01A16D1ABB18E
:1057000015F8013BE0181A46407800F00300012824
:1057100008BF03F1200211F8013BE018407800F0C7
:1057200003000128E9D12033D01AE9D030BC7047FA
:105730005C080020000000000000000000000000E5
:10574000F0B404780CB30E780746C6B1A64210D068
:105750004B1C01E094420BD01D4613F8012B002A8C
:10576000F8D144780130002CEED12E78074600E0C5
:105770002646002E14BF38460020F0BC70474478FF
:105780000D460130002CDFD1EFE72046F0BC70471A
:10579000F0B40478CCB10E7807469EB10546B44209
:1057A0000AD00A4601E09C4206D012F8013F002BC5
:1057B000F9D1281AF0BC70476C787D1C002CF8D009
:1057C0002F46ECE73046F0BC70472046F2E700BFBA
:1057D00063633235323049737254687265616400B4
:1057E00069646C650000000000000000000000001B
:1057F0006D61696E0016C011040448080C1014187D
:10580000001C1D1E1F200000000000000000000002
:10581000011F0008E11E0008411F0008211F0008A9
:10582000311F0008111F0008F11E0008D11E0008DA
:105830000000000000000000000000000000000068
:105840000000000000000000000000000000000058
:105850000100000000000000000000000000000047
:10586000106002400860024000000B002860024007
:105870000860024006010C004060024008600240DF
:1058800010020D00586002400860024016030E002E
:10589000706002400C60024000040F00886002400B
:1058A0000C60024006051000A06002400C6002403F
:1058B00010061100B86002400C60024016072F006D
:1058C0001064024008640240000838002864024066
:1058D000086402400609390040640240086402403E
:1058E000100A3A005864024008640240160B3B005C
:1058F000706402400C640240000C3C00886402406A
:105900000C640240060D4400A06402400C64024096
:10591000100E4500B86402400C640240160F4600A9
:1059200080000000400100000300000000000000B3
:105930007573625F6C6C645F70756D700000000061
:10594000000000001123000831260008012700088C
:1059500040004000180C0020180C0020010000003E
:10596000280C0020000000000000000000000000E3
:1059700000AAA02A00000000FFABFFFF5400014076
:10598000FFFF00000000565500AA0A008020080012
:1059900040020000FFFFFFFF15455155FFFF0000CB
:1059A0000000000440000000018020020000000010
:1059B000FFFFFFFF54154554FFFF0000000000608B
:1059C000000606000001005500000000FFFFFFFF79
:1059D00055505500FF0F00000000000000000000BF
:1059E0004000000000000000FFFFFFFF000000007B
:1059F000FFFF0000000000000000000000000000A9
:105A000000000000FFFFFFFF00000000FFFF00009C
:105A10000000000000000000000000000000000086
:105A2000FFFFFFFF00000000FFFF0000000000007C
:105A3000000000000000000000000000FFFFFFFF6A
:105A400000000000FFFF0000000000000000000058
:105A50000000000000000000FFFFFFFF000000004A
:105A6000FFFF000000000000000000000000000038
:105A7000286E756C6C29000000000000000000001A
:105A800055736167653A2025730D0A007379737445
:105A9000696D6500256C750D0A000000696E666F02
:105AA000000000004B65726E656C3A2020202020BB
:105AB000202025730D0A0000322E372E30756E73AC
:105AC0007461626C65000000436F6D70696C657293
:105AD0003A202020202025730D0A00004743432050
